{
  "contractName": "ERC721",
  "abi": [
    {
      "inputs": [],
      "stateMutability": "nonpayable",
      "type": "constructor"
    },
    {
      "anonymous": false,
      "inputs": [
        {
          "indexed": true,
          "internalType": "address",
          "name": "_owner",
          "type": "address"
        },
        {
          "indexed": true,
          "internalType": "address",
          "name": "_approved",
          "type": "address"
        },
        {
          "indexed": true,
          "internalType": "uint256",
          "name": "_tokenId",
          "type": "uint256"
        }
      ],
      "name": "Approval",
      "type": "event"
    },
    {
      "anonymous": false,
      "inputs": [
        {
          "indexed": true,
          "internalType": "address",
          "name": "_owner",
          "type": "address"
        },
        {
          "indexed": true,
          "internalType": "address",
          "name": "_operator",
          "type": "address"
        },
        {
          "indexed": false,
          "internalType": "bool",
          "name": "_approved",
          "type": "bool"
        }
      ],
      "name": "ApprovalForAll",
      "type": "event"
    },
    {
      "anonymous": false,
      "inputs": [
        {
          "indexed": true,
          "internalType": "address",
          "name": "_from",
          "type": "address"
        },
        {
          "indexed": true,
          "internalType": "address",
          "name": "_to",
          "type": "address"
        },
        {
          "indexed": true,
          "internalType": "uint256",
          "name": "_tokenId",
          "type": "uint256"
        }
      ],
      "name": "Transfer",
      "type": "event"
    },
    {
      "inputs": [
        {
          "internalType": "bytes4",
          "name": "interfaceId",
          "type": "bytes4"
        }
      ],
      "name": "supportsInterface",
      "outputs": [
        {
          "internalType": "bool",
          "name": "",
          "type": "bool"
        }
      ],
      "stateMutability": "view",
      "type": "function"
    },
    {
      "inputs": [
        {
          "internalType": "address",
          "name": "_owner",
          "type": "address"
        }
      ],
      "name": "balanceOf",
      "outputs": [
        {
          "internalType": "uint256",
          "name": "",
          "type": "uint256"
        }
      ],
      "stateMutability": "view",
      "type": "function"
    },
    {
      "inputs": [
        {
          "internalType": "uint256",
          "name": "_tokenId",
          "type": "uint256"
        }
      ],
      "name": "ownerOf",
      "outputs": [
        {
          "internalType": "address",
          "name": "",
          "type": "address"
        }
      ],
      "stateMutability": "view",
      "type": "function"
    },
    {
      "inputs": [
        {
          "internalType": "address",
          "name": "_from",
          "type": "address"
        },
        {
          "internalType": "address",
          "name": "_to",
          "type": "address"
        },
        {
          "internalType": "uint256",
          "name": "_tokenId",
          "type": "uint256"
        }
      ],
      "name": "transferFrom",
      "outputs": [],
      "stateMutability": "nonpayable",
      "type": "function"
    },
    {
      "inputs": [
        {
          "internalType": "address",
          "name": "_to",
          "type": "address"
        },
        {
          "internalType": "uint256",
          "name": "tokenId",
          "type": "uint256"
        }
      ],
      "name": "approve",
      "outputs": [],
      "stateMutability": "nonpayable",
      "type": "function"
    },
    {
      "inputs": [
        {
          "internalType": "address",
          "name": "operator",
          "type": "address"
        },
        {
          "internalType": "bool",
          "name": "approved",
          "type": "bool"
        }
      ],
      "name": "setApprovalForAll",
      "outputs": [],
      "stateMutability": "nonpayable",
      "type": "function"
    },
    {
      "inputs": [
        {
          "internalType": "address",
          "name": "owner",
          "type": "address"
        },
        {
          "internalType": "address",
          "name": "operator",
          "type": "address"
        }
      ],
      "name": "isApprovedForAll",
      "outputs": [
        {
          "internalType": "bool",
          "name": "",
          "type": "bool"
        }
      ],
      "stateMutability": "view",
      "type": "function"
    }
  ],
  "bytecode": "0x60806040523480156200001157600080fd5b50620000437f01ffc9a7a5cef8baa21ed3c5c0d7e23accb804b619e9333b597f47a0d84076e2620000be60201b60201c565b620000b87f8c51fd5fcf1f456ec4eb0f32f68d83471264fe082fac12bcbfd2fa4be9eed6c77f22c82707ba960a14c7592ffb6b8cfaa073fed0048a84cc7fa41f6b5bd8e7f2e47f8a7e378434598edc36d108689a030cbc9d7d465de4f74c71bae1028eed6a881b1818620000be60201b60201c565b62000218565b63ffffffff60e01b817bffffffffffffffffffffffffffffffffffffffffffffffffffffffff19160362000129576040517f08c379a00000000000000000000000000000000000000000000000000000000081526004016200012090620001f6565b60405180910390fd5b6001600080837bffffffffffffffffffffffffffffffffffffffffffffffffffffffff19167bffffffffffffffffffffffffffffffffffffffffffffffffffffffff1916815260200190815260200160002060006101000a81548160ff02191690831515021790555050565b600082825260208201905092915050565b7f4552433136353a20496e76616c696420696e7465726661636500000000000000600082015250565b6000620001de60198362000195565b9150620001eb82620001a6565b602082019050919050565b600060208201905081810360008301526200021181620001cf565b9050919050565b61137280620002286000396000f3fe608060405234801561001057600080fd5b506004361061007d5760003560e01c80636352211e1161005b5780636352211e146100ea57806370a082311461011a578063a22cb4651461014a578063e985e9c5146101665761007d565b806301ffc9a714610082578063095ea7b3146100b257806323b872dd146100ce575b600080fd5b61009c60048036038101906100979190610b96565b610196565b6040516100a99190610bde565b60405180910390f35b6100cc60048036038101906100c79190610c8d565b6101fd565b005b6100e860048036038101906100e39190610ccd565b6103a9565b005b61010460048036038101906100ff9190610d20565b610402565b6040516101119190610d5c565b60405180910390f35b610134600480360381019061012f9190610d77565b6104b3565b6040516101419190610db3565b60405180910390f35b610164600480360381019061015f9190610dfa565b61056a565b005b610180600480360381019061017b9190610e3a565b610579565b60405161018d9190610bde565b60405180910390f35b6000806000837bffffffffffffffffffffffffffffffffffffffffffffffffffffffff19167bffffffffffffffffffffffffffffffffffffffffffffffffffffffff1916815260200190815260200160002060009054906101000a900460ff169050919050565b600061020882610402565b90508073ffffffffffffffffffffffffffffffffffffffff168373ffffffffffffffffffffffffffffffffffffffff1603610278576040517f08c379a000000000000000000000000000000000000000000000000000000000815260040161026f90610efd565b60405180910390fd5b8073ffffffffffffffffffffffffffffffffffffffff163373ffffffffffffffffffffffffffffffffffffffff1614806102b857506102b78133610579565b5b6102f7576040517f08c379a00000000000000000000000000000000000000000000000000000000081526004016102ee90610f8f565b60405180910390fd5b826003600084815260200190815260200160002060006101000a81548173ffffffffffffffffffffffffffffffffffffffff021916908373ffffffffffffffffffffffffffffffffffffffff160217905550818373ffffffffffffffffffffffffffffffffffffffff168273ffffffffffffffffffffffffffffffffffffffff167f8c5be1e5ebec7d5bd14f71427d1e84f3dd0314c0f7b2291e5b200ac8c7c3b92560405160405180910390a4505050565b6103b3338261060d565b6103f2576040517f08c379a00000000000000000000000000000000000000000000000000000000081526004016103e990610ffb565b60405180910390fd5b6103fd838383610716565b505050565b6000806001600084815260200190815260200160002060009054906101000a900473ffffffffffffffffffffffffffffffffffffffff169050600073ffffffffffffffffffffffffffffffffffffffff168173ffffffffffffffffffffffffffffffffffffffff16036104aa576040517f08c379a00000000000000000000000000000000000000000000000000000000081526004016104a190611067565b60405180910390fd5b80915050919050565b60008073ffffffffffffffffffffffffffffffffffffffff168273ffffffffffffffffffffffffffffffffffffffff1603610523576040517f08c379a000000000000000000000000000000000000000000000000000000000815260040161051a906110d3565b60405180910390fd5b600260008373ffffffffffffffffffffffffffffffffffffffff1673ffffffffffffffffffffffffffffffffffffffff168152602001908152602001600020549050919050565b61057533838361095b565b5050565b6000600460008473ffffffffffffffffffffffffffffffffffffffff1673ffffffffffffffffffffffffffffffffffffffff16815260200190815260200160002060008373ffffffffffffffffffffffffffffffffffffffff1673ffffffffffffffffffffffffffffffffffffffff16815260200190815260200160002060009054906101000a900460ff16905092915050565b600061061882610ac7565b610657576040517f08c379a000000000000000000000000000000000000000000000000000000000815260040161064e90611067565b60405180910390fd5b600061066283610402565b90508073ffffffffffffffffffffffffffffffffffffffff168473ffffffffffffffffffffffffffffffffffffffff1614806106fc57508373ffffffffffffffffffffffffffffffffffffffff166003600085815260200190815260200160002060009054906101000a900473ffffffffffffffffffffffffffffffffffffffff1673ffffffffffffffffffffffffffffffffffffffff16145b8061070d575061070c8185610579565b5b91505092915050565b600073ffffffffffffffffffffffffffffffffffffffff168273ffffffffffffffffffffffffffffffffffffffff1603610785576040517f08c379a000000000000000000000000000000000000000000000000000000000815260040161077c90611165565b60405180910390fd5b8273ffffffffffffffffffffffffffffffffffffffff166107a582610402565b73ffffffffffffffffffffffffffffffffffffffff16146107fb576040517f08c379a00000000000000000000000000000000000000000000000000000000081526004016107f2906111f7565b60405180910390fd5b6001600260008573ffffffffffffffffffffffffffffffffffffffff1673ffffffffffffffffffffffffffffffffffffffff168152602001908152602001600020600082825461084b9190611246565b92505081905550816001600083815260200190815260200160002060006101000a81548173ffffffffffffffffffffffffffffffffffffffff021916908373ffffffffffffffffffffffffffffffffffffffff1602179055506001600260008473ffffffffffffffffffffffffffffffffffffffff1673ffffffffffffffffffffffffffffffffffffffff16815260200190815260200160002060008282546108f4919061127a565b92505081905550808273ffffffffffffffffffffffffffffffffffffffff168473ffffffffffffffffffffffffffffffffffffffff167fddf252ad1be2c89b69c2b068fc378daa952ba7f163c4a11628f55a4df523b3ef60405160405180910390a4505050565b8173ffffffffffffffffffffffffffffffffffffffff168373ffffffffffffffffffffffffffffffffffffffff16036109c9576040517f08c379a00000000000000000000000000000000000000000000000000000000081526004016109c09061131c565b60405180910390fd5b80600460008573ffffffffffffffffffffffffffffffffffffffff1673ffffffffffffffffffffffffffffffffffffffff16815260200190815260200160002060008473ffffffffffffffffffffffffffffffffffffffff1673ffffffffffffffffffffffffffffffffffffffff16815260200190815260200160002060006101000a81548160ff0219169083151502179055508173ffffffffffffffffffffffffffffffffffffffff168373ffffffffffffffffffffffffffffffffffffffff167f17307eab39ab6107e8899845ad3d59bd9653f200f220920489ca2b5937696c3183604051610aba9190610bde565b60405180910390a3505050565b6000806001600084815260200190815260200160002060009054906101000a900473ffffffffffffffffffffffffffffffffffffffff169050600073ffffffffffffffffffffffffffffffffffffffff168173ffffffffffffffffffffffffffffffffffffffff161415915050919050565b600080fd5b60007fffffffff0000000000000000000000000000000000000000000000000000000082169050919050565b610b7381610b3e565b8114610b7e57600080fd5b50565b600081359050610b9081610b6a565b92915050565b600060208284031215610bac57610bab610b39565b5b6000610bba84828501610b81565b91505092915050565b60008115159050919050565b610bd881610bc3565b82525050565b6000602082019050610bf36000830184610bcf565b92915050565b600073ffffffffffffffffffffffffffffffffffffffff82169050919050565b6000610c2482610bf9565b9050919050565b610c3481610c19565b8114610c3f57600080fd5b50565b600081359050610c5181610c2b565b92915050565b6000819050919050565b610c6a81610c57565b8114610c7557600080fd5b50565b600081359050610c8781610c61565b92915050565b60008060408385031215610ca457610ca3610b39565b5b6000610cb285828601610c42565b9250506020610cc385828601610c78565b9150509250929050565b600080600060608486031215610ce657610ce5610b39565b5b6000610cf486828701610c42565b9350506020610d0586828701610c42565b9250506040610d1686828701610c78565b9150509250925092565b600060208284031215610d3657610d35610b39565b5b6000610d4484828501610c78565b91505092915050565b610d5681610c19565b82525050565b6000602082019050610d716000830184610d4d565b92915050565b600060208284031215610d8d57610d8c610b39565b5b6000610d9b84828501610c42565b91505092915050565b610dad81610c57565b82525050565b6000602082019050610dc86000830184610da4565b92915050565b610dd781610bc3565b8114610de257600080fd5b50565b600081359050610df481610dce565b92915050565b60008060408385031215610e1157610e10610b39565b5b6000610e1f85828601610c42565b9250506020610e3085828601610de5565b9150509250929050565b60008060408385031215610e5157610e50610b39565b5b6000610e5f85828601610c42565b9250506020610e7085828601610c42565b9150509250929050565b600082825260208201905092915050565b7f4572726f723a20417070726f76696e6720697473656c66206973206e6f74206160008201527f6c6c6f7765640000000000000000000000000000000000000000000000000000602082015250565b6000610ee7602683610e7a565b9150610ef282610e8b565b604082019050919050565b60006020820190508181036000830152610f1681610eda565b9050919050565b7f4f6e6c79206f776e657220697320616c6c6f77656420746f20706572666f726d60008201527f207468697320616374696f6e0000000000000000000000000000000000000000602082015250565b6000610f79602c83610e7a565b9150610f8482610f1d565b604082019050919050565b60006020820190508181036000830152610fa881610f6c565b9050919050565b7f4e6f7420617574686f7269736564000000000000000000000000000000000000600082015250565b6000610fe5600e83610e7a565b9150610ff082610faf565b602082019050919050565b6000602082019050818103600083015261101481610fd8565b9050919050565b7f546f6b656e20646f6573206e6f74206578697374000000000000000000000000600082015250565b6000611051601483610e7a565b915061105c8261101b565b602082019050919050565b6000602082019050818103600083015261108081611044565b9050919050565b7f4f776e6572207175657279206e6f742076616c69642e00000000000000000000600082015250565b60006110bd601683610e7a565b91506110c882611087565b602082019050919050565b600060208201905081810360008301526110ec816110b0565b9050919050565b7f4552433732313a207472616e7366657220746f2061207a65726f20616464726560008201527f7373000000000000000000000000000000000000000000000000000000000000602082015250565b600061114f602283610e7a565b915061115a826110f3565b604082019050919050565b6000602082019050818103600083015261117e81611142565b9050919050565b7f547279696e6720746f207472616e66657220746f6b656e20776869636820697360008201527f206e6f74206f776e656400000000000000000000000000000000000000000000602082015250565b60006111e1602a83610e7a565b91506111ec82611185565b604082019050919050565b60006020820190508181036000830152611210816111d4565b9050919050565b7f4e487b7100000000000000000000000000000000000000000000000000000000600052601160045260246000fd5b600061125182610c57565b915061125c83610c57565b92508282101561126f5761126e611217565b5b828203905092915050565b600061128582610c57565b915061129083610c57565b9250827fffffffffffffffffffffffffffffffffffffffffffffffffffffffffffffffff038211156112c5576112c4611217565b5b828201905092915050565b7f4552433732313a20417070726f766520746f2063616c6c657200000000000000600082015250565b6000611306601983610e7a565b9150611311826112d0565b602082019050919050565b60006020820190508181036000830152611335816112f9565b905091905056fea2646970667358221220e8c753a14bdd74d7f002f4a01210c459c5382af9a86cb34b20f0a79806fd5fbf64736f6c634300080d0033",
  "immutableReferences": {},
  "source": "// SPDX-License-Identifier: MIT\npragma solidity ^0.8.0;\n\nimport './ERC165.sol';\nimport './interfaces/IERC721.sol';\n\ncontract ERC721 is ERC165, IERC721 {\n    \n    mapping(uint256 => address) private _tokenOwner; //token id to address of owner\n    mapping(address => uint256) private _ownedTokenCount; //total tokens owned\n    mapping(uint256 => address) private _tokenApprovals;  //tokenId to approved address\n    mapping(address => mapping(address => bool)) private _operatorApprovals; // mapping from owner to operator approvals\n\n    constructor(){\n        _registerInterface(bytes4(keccak256(\"balanceOf(bytes4)\") ^ keccak256(\"transferFrom(bytes4)\")\n         ^ keccak256(\"approve(bytes4)\")));\n    }\n\n    function balanceOf(address _owner) public override view returns (uint256) {\n        require(_owner != address(0), \"Owner query not valid.\");\n        return _ownedTokenCount[_owner];\n    }\n\n    function ownerOf(uint256 _tokenId) public override view returns (address) {\n        address owner = _tokenOwner[_tokenId];\n        require(owner != address(0), \"Token does not exist\");\n        return owner;\n    }\n\n    function _exists(uint256 tokenId) internal view returns (bool) {\n        //if the token is owned by some valid address then it exists\n        address owner = _tokenOwner[tokenId];\n        return owner != address(0);\n    }\n\n    function _mint(address to, uint256 tokenId) internal virtual {\n        require(to != address(0), \"ERC721: Minting to a zero address\");\n        require(!_exists(tokenId), \"ERC721: Token already minted\"); //require that the token does not exist\n        _tokenOwner[tokenId] = to;\n        _ownedTokenCount[to] += 1;\n\n        emit Transfer(address(0), to, tokenId);\n    }\n\n    function _transferFrom(address _from, address _to, uint256 _tokenId) internal{\n        require(_to != address(0), 'ERC721: transfer to a zero address');\n        require(ownerOf(_tokenId) == _from, 'Trying to tranfer token which is not owned');\n\n        _ownedTokenCount[_from] -= 1;\n        _tokenOwner[_tokenId] = _to;\n        _ownedTokenCount[_to] += 1;\n\n        emit Transfer(_from, _to, _tokenId);\n        \n    }\n\n    function transferFrom(address _from, address _to, uint256 _tokenId) public override {\n        require(isApprovedOrOwner(msg.sender , _tokenId) , 'Not authorised');\n        _transferFrom(_from , _to , _tokenId);\n    }\n\n    function approve(address _to , uint256 tokenId) public override {\n        address owner = ownerOf(tokenId);\n        require(_to != owner , 'Error: Approving itself is not allowed');\n        require(msg.sender == owner || isApprovedForAll(owner , msg.sender) , 'Only owner is allowed to perform this action');\n        _tokenApprovals[tokenId] = _to;\n\n        emit Approval(owner , _to , tokenId);\n    }\n   \n    function isApprovedOrOwner(address spender , uint256 tokenId) internal view returns(bool) {\n        require(_exists(tokenId), 'Token does not exist');\n        address owner = ownerOf(tokenId);\n        return (spender == owner || _tokenApprovals[tokenId] == spender || isApprovedForAll(owner , spender));\n    }\n\n    function _setApprovalForAll(address owner, address operator, bool approved) internal{\n        require(owner != operator, \"ERC721: Approve to caller\");\n        _operatorApprovals[owner][operator] = approved;\n        emit ApprovalForAll(owner, operator, approved);\n    }\n    function setApprovalForAll(address operator, bool approved) public override {\n        _setApprovalForAll(msg.sender, operator, approved);\n    }\n    \n\n    //is the operator allowed to trade all tokens of owner\n    function isApprovedForAll(address owner, address operator) public view override returns (bool) {\n        return _operatorApprovals[owner][operator];\n    }\n}\n",
  "sourcePath": "C:\\Users\\Asus\\Documents\\Web3\\NFT\\nft-marketplace-starter-kit\\src\\contracts\\ERC721.sol",
  "compiler": {
    "name": "solc",
    "version": "0.8.13+commit.abaa5c0e.Emscripten.clang"
  },
  "schemaVersion": "3.4.4",
  "updatedAt": "2022-05-10T14:38:07.466Z",
  "devdoc": {
    "kind": "dev",
    "methods": {},
    "version": 1
  },
  "userdoc": {
    "kind": "user",
    "methods": {},
    "version": 1
  }
}